:100000000C94C5000C94ED000C94ED000C94ED00E4
:100010000C94ED000C94ED000C94ED000C94ED00AC
:100020000C94ED000C94ED000C9484040C94F304F7
:100030000C94ED000C94ED000C94ED000C94ED008C
:100040000C94ED000C94ED000C94ED000C94ED007C
:100050000C94ED000C94ED000C94ED000C9425072D
:100060000C94ED000C94ED000C94ED000C94ED005C
:100070000C94ED000C94ED000C94ED000C94ED004C
:100080000C94ED000C94ED000C94ED000C94ED003C
:100090000C94ED000C94ED000C94ED000C94ED002C
:1000A0000C94ED000C94ED000C94ED00080B000294
:1000B0000202000009040000010202000005240001
:1000C0001001052401010104240206052406000193
:1000D0000705810310004009040100020A00000026
:1000E00007050202400000070583024000000403E8
:1000F000090412010002EF02014041234180000186
:100100000102030141726475696E6F204C4C43001B
:1001100041726475696E6F2059756E0000000000B1
:10012000250028002B002E003100040404040403E1
:100130000405020202020403020202020606060687
:1001400006060404020202040404080201104080AE
:1001500040102040804080080204018040201002AE
:1001600001108010204040200000000200090F0014
:1001700000030401000C000000000000000000006B
:1001800000000000000000006F0711241FBECFEF29
:10019000DAE0DEBFCDBF22E0A4E5B1E001C01D92F0
:1001A000AD30B207E1F711E0A0E0B1E0EAEFF3E132
:1001B00002C005900D92A435B107D9F710E0C5EC47
:1001C000D0E004C02197FE010E94F509C43CD1078C
:1001D000C9F70E9496070C94FB090C940000FC01DF
:1001E00080917601882311F13FB7F89482E08093E3
:1001F000E9002091F200822F90E01816190614F4FD
:1002000081E090E0882339F0289844E64093750116
:100210004091F1004083222339F02091F200211116
:1002200003C02BE62093E8003FBF08958FEF9FEFB8
:1002300008952FB7F89483E08093E9009091E80047
:10024000892F807295FF04C09091F20080E4891B91
:100250002FBF089580916D0181110DC082E08093C0
:10026000690184E080936A0110926C0110926B0125
:1002700081E080936D0189E691E0089540916301EA
:10028000509164012091610130916201421753073E
:10029000B4F49091E8009570E1F39091E80092FD3C
:1002A00019C08093F10080916301909164010196DF
:1002B0008F739927892B19F48EEF8093E800809132
:1002C00063019091640101969093640180936301AE
:1002D00081E0089580E00895EF92FF920F931F93BD
:1002E000CF93DF93F82E192FE62E042F81E0860F8F
:1002F000880F0E943E0183E00E943E01CF2DD12F46
:10030000EC0EFD2EF11CCE15DF05B9F007FF13C072
:10031000FE0184910E943E01182F80E00E943E0160
:10032000812321968111EFCFDF91CF911F910F9102
:10033000FF90EF9008958881EDCF81E0F5CFDF92B7
:10034000EF92FF920F931F93CF93DF93D82E8A01E2
:10035000EB017B01E40EF51ECE15DF0559F0D7FE4B
:1003600012C0FE0184910E943E0121968111F4CFBA
:100370000FEF1FEFC801DF91CF911F910F91FF90F9
:10038000EF90DF9008958881EECF0F931F93CF9366
:10039000DF931F92CDB7DEB782E0898342E450E05D
:1003A0006CEA70E080E80E949F010E942A01DC0153
:1003B00012960D911C910115110589F0D801ED914E
:1003C000FC910280F381E02DBE016F5F7F4FC80179
:1003D000099597FD04C0F80100851185ECCF89814E
:1003E0000F90DF91CF911F910F910895615030F0E0
:1003F0002091F100FC0120830196F8CF289884E633
:10040000809375010895CF93DF931F92CDB7DEB728
:100410006983DC01ED91FC910280F381E02D41E0E4
:1004200050E0BE016F5F7F4F09950F90DF91CF9134
:10043000089583E08093E9008091F200882319F009
:100440008AE38093E80008950E94190190E00895DE
:10045000CF93DF931F92CDB7DEB7FC0184859585DE
:1004600097FD08C02FEF3FEF358724870F90DF916E
:10047000CF910895CE0101960E94EF00019719F4E3
:10048000898190E0F3CF8FEF9FEFF0CF0F931F9311
:10049000CF93DF931F92CDB7DEB78C01FC0184852B
:1004A000958597FF0BC0CE0101960E94EF00019742
:1004B00071F4898190E0F80195878487F80184853B
:1004C00095850F90DF91CF911F910F9108958FEF38
:1004D0009FEFF1CFFC018485958597FD0BC09FB7F9
:1004E000F89482E08093E9008091F2009FBF90E051
:1004F000019608959FB7F89482E08093E900809177
:10050000F2009FBF90E008953FB7F89480915901A1
:1005100090915A01A0915B01B0915C0126B5A89B16
:1005200005C02F3F19F00196A11DB11D3FBFBA2F85
:10053000A92F982F8827BC01CD01620F711D811D45
:10054000911D42E0660F771F881F991F4A95D1F7CA
:1005500008958F929F92AF92BF92CF92DF92EF92C7
:10056000FF924B015C010E9484026B017C010E949E
:1005700084026C197D098E099F09683E73408105CC
:100580009105A8F321E0821A9108A108B10888EE2C
:10059000C80E83E0D81EE11CF11C81149104A10453
:1005A000B10429F7FF90EF90DF90CF90BF90AF900C
:1005B0009F908F9008958F929F92AF92BF92CF920B
:1005C000DF92EF92FF920F931F93CF93DF936C0113
:1005D0007B018A0180910B01882309F45CC0809122
:1005E0007601882309F457C08091670180FF05C018
:1005F0008091E00082608093E000E801B12C8AEFF6
:10060000A82E93E0892E2AE3922E209711F4BB2086
:10061000D9F10E94190181110AC0AA94AA20D9F126
:1006200061E070E080E090E00E94A902EECF8C17BC
:100630001D0611F00CF08C2F9FB7F8948092E90002
:100640002091E80025FD02C09FBFDFCF282F30E0BA
:10065000C21BD30BF701815020F041914093F10070
:10066000FACFE20EF31EBB2021F09092E800B12CED
:10067000EBCF8091E80085FDE7CF9092E800BB24A6
:10068000B394209709F3F3CF5D9884E680936801D3
:10069000101611063CF081E090E0F601938382830E
:1006A00010E000E0C801DF91CF911F910F91FF9002
:1006B000EF90DF90CF90BF90AF909F908F90089574
:1006C0002FB7F894609155017091560180915701B0
:1006D000909158012FBF0895FC0101900020E9F787
:1006E0003197AF01481B590BBC0187E791E00C948F
:1006F000DB028F929F92AF92BF920F931F93CF9383
:10070000DF93CDB7DEB7A1970FB6F894DEBF0FBE6B
:10071000CDBF19A2423008F44AE08E010F5D1F4F91
:10072000842E912CB12CA12CA50194010E94D309F7
:10073000E62FB901CA01EA30F4F4E05DD801EE9386
:100740008D01232B242B252B79F790E080E0109747
:1007500019F0CD010E946C03A1960FB6F894DEBF8C
:100760000FBECDBFDF91CF911F910F91BF90AF9082
:100770009F908F900895E95CE1CFEF92FF920F93E5
:100780001F93CF93DF9300D000D0CDB7DEB787E7BC
:1007900091E00E94280287E791E00E9428028E01E2
:1007A0000F5F1F4F78018A3341F0F80181938F0169
:1007B00087E791E00E942802F6CFC7010E94AD09A9
:1007C0008C0187E791E00E942802282F2053330BE9
:1007D000A9012230310508F041C098013327F90101
:1007E000E859FE4F9491F901E75BFE4F8491265D35
:1007F0003E4FF9012491222309F430C09923E9F0F6
:1008000091509F30D0F4E92FF0E0E75FFB4F0C945C
:10081000F5095204560418044A044E041D041D042C
:100820001D0459045F04630467046D041D0471040E
:10083000909180009F7790938000E22FF0E0EE0F80
:10084000FF1FE45EFE4FA591B4919FB7F894EC9121
:1008500041114DC080958E238C939FBF87E791E017
:100860000E9428028A3011F08D30C1F787E791E0AD
:100870000E9446028A30E9F587E791E00F900F90D9
:100880000F900F90DF91CF911F910F91FF90EF90FC
:100890000C942802909180009F7DCDCF9091800094
:1008A000977FC9CF94B59F7794BDC7CF94B59F7DEF
:1008B000FBCF909190009F7790939000BECF909146
:1008C00090009F7DF9CF90919000977FF5CF909108
:1008D000C0009F779093C000B0CF9091C0009F7DE3
:1008E000F9CF9091C200977F9093C200A6CF8E2B34
:1008F000B3CF0F900F900F900F90DF91CF911F917A
:100900000F91FF90EF9008951F920F920FB60F92E4
:1009100011248F939F938091E1009091E100937F48
:100920009093E10083FF0FC01092E90091E0909353
:10093000EB001092EC0092E39093ED0010927601A0
:1009400098E09093F00082FF22C093E09093E9003A
:100950009091F200992319F09AE39093E800909116
:100960006801992341F0909168019150909368013A
:10097000911101C05D9A90917501992341F0909178
:100980007501915090937501911101C0289A84FFCF
:1009900018C08091E2008E7E81608093E200809199
:1009A000E1008F7E8093E100809167018E7E8061FF
:1009B000809367019F918F910F900FBE0F901F90B2
:1009C000189580FFF7CF8091E2008E7E8061809342
:1009D000E2008091E1008E7E8093E10080916701CA
:1009E0008E7E8160E5CF1F920F920FB60F92112479
:1009F000CF92DF92EF92FF920F931F932F933F932B
:100A00004F935F936F937F938F939F93AF93BF9316
:100A1000EF93FF93CF93DF93CDB7DEB76C97DEBF35
:100A2000CDBF1092E9008091E80083FF25C068E007
:100A3000CE0145960E94F60182EF8093E8008D89F1
:100A400087FF39C09091E80090FFFCCF982F9076F7
:100A500009F034C19E894F89588D2F89F88C9111E6
:100A600031C0803861F5809166018093F100109269
:100A7000F1008EEF8093E8006C960FB6F894DEBF1D
:100A80000FBECDBFDF91CF91FF91EF91BF91AF919D
:100A90009F918F917F916F915F914F913F912F9196
:100AA0001F910F91FF90EF90DF90CF900F900FBEAE
:100AB0000F901F9018959EEF9093E800C7CF10926B
:100AC000F100D5CF913059F48111D3CF4130510588
:100AD00081F6809166018D7F80936601CACF933045
:100AE00049F48111C6CF4130510519F68091660154
:100AF0008260F2CF953041F48091E80080FFFCCF16
:100B000020682093E300B5CF963009F0A9C00B8D83
:100B10001C8D22E01092E900109264011092630192
:100B2000F2122EC010926201109261010E94C50162
:100B30001F8299E09983FA8291E09E8390EA9887D8
:100B40009AEF99872091630130916401275F3F4FAD
:100B50003C832B838D831092E900109264011092E4
:100B60006301109362010093610149E050E0BE010E
:100B70006F5F7F4F80E00E949F010E94C50179CF87
:100B800010936201009361010E942A01DC01129618
:100B90000D911C910115110509F451C1D801ED9178
:100BA000FC910480F581E02DBE016B5E7F4FC80192
:100BB0000995009709F03EC1F80100851185EACF3B
:100BC000F3E0FF120EC08F89882309F440C0823001
:100BD00061F440E86BE080E191E00E946C018111DA
:100BE00048CF81E28093EB0047CF813029F440E881
:100BF0006BE084E091E0F1CF833099F70E942A0105
:100C0000DC011296ED90FC908E010F5F1F4F680182
:100C1000E114F10479F0D701ED91FC910680F781A0
:100C2000E02DB801C7010995080F111DF701E084F7
:100C3000F184EECFD8011C92F60101900020E9F773
:100C40003197BF016C197D0940E0C601C6CF6EEE39
:100C500070E0FB01449150E080E80E949F0109CFC1
:100C6000973009F4BECF983021F481E08093F100F1
:100C700000CF993009F0FDCE837009F0B2CFEDE0DE
:100C8000F1E081E031E096E32191222371F080933D
:100C9000E9003093EB00DF0111972C912093EC00D9
:100CA0009093ED008F5F873079F78EE78093EA00AD
:100CB0001092EA008F8980937601DBCE8B8D9C8D1C
:100CC0001092E90010926401109263019093620106
:100CD00080936101898D811192C08E899D89913A9D
:100CE00049F4813209F07DCF47E050E064E071E0E3
:100CF00080E0B3CF913209F074CF833269F48F89E9
:100D0000988DB0E0A0E08093000190930101A09342
:100D10000201B0930301ADCE803269F48091E80006
:100D200082FFFCCF67E084E091E00E94F6018BEF48
:100D30008093E8009ECE823209F09BCE8F8980930B
:100D40000B01EEEFFFE7859194918B3F9C4D51F1A4
:100D5000E0E0F8E08091040190910501A091060186
:100D6000B0910701803B9440A105B105F1F4809159
:100D70000B0180FD1AC0EE3F8AE0F80789F587E78E
:100D800097E791838083809160008093650188E17B
:100D90009BE00FB6F894A895809360000FBE9093E7
:100DA000600067CEEEEFFAE0D5CF80819181873782
:100DB000974709F05ECEA895809160008861809386
:100DC00060008091650180936000EE3F2AE0F207A9
:100DD00089F08091FE0A9091FF0A9183808349CE29
:100DE000808191818737980751F29093FF0A809311
:100DF000FE0AC5CF1092FF0A1092FE0A3ACE0E9458
:100E00002A01DC0112960D911C910115110509F4BE
:100E1000E8CED801ED91FC910190F081E02DBE016A
:100E20006B5E7F4FC8010995811123CEF8010085C3
:100E30001185EBCF181619060CF41BCED2CEF1E0BB
:100E4000FF12BECE62EF70E004CF1F920F920FB67A
:100E50000F9211242F933F938F939F93AF93BF9340
:100E60008091550190915601A0915701B091580180
:100E70003091540123E0230F2D3758F50196A11D21
:100E8000B11D209354018093550190935601A09376
:100E90005701B09358018091590190915A01A09146
:100EA0005B01B0915C010196A11DB11D80935901B8
:100EB00090935A01A0935B01B0935C01BF91AF91F5
:100EC0009F918F913F912F910F900FBE0F901F9088
:100ED000189526E8230F0296A11DB11DD2CFE7E792
:100EE000F1E01382128288EE93E0A0E0B0E0848308
:100EF0009583A683B78387E191E0918380838FEF09
:100F00009FEF95878487E7ECF1E0168217821086C1
:100F10001186128613861486158616861786108A01
:100F2000118A128A138A148A158A0895789484B5CE
:100F3000826084BD84B5816084BD85B5826085BDD5
:100F400085B5816085BD80916E00816080936E0063
:100F50001092810080918100826080938100809155
:100F60008100816080938100809180008160809306
:100F70008000809191008260809391008091910027
:100F800081608093910080919000816080939000B7
:100F90008091C10084608093C1008091C100826013
:100FA0008093C1008091C10081608093C1008091D5
:100FB000C30081608093C3008091C00082608093F1
:100FC000C0008091C20081608093C20080917A004D
:100FD000846080937A0080917A00826080937A00A6
:100FE00080917A00816080937A0080917A00806895
:100FF00080937A0010927601109266011092670138
:101000008091D70081608093D70080EA8093D800D8
:1010100089B5806189BD89B5826089BD09B400FE4A
:10102000FDCF61E070E080E090E00E94A902809135
:10103000D8008F7C80618093D8008091E000807F11
:101040008093E0008091E1008E7E8093E1008DE04E
:101050008093E200559A209A1092090210920A0297
:1010600010920B0210920C021092C9011092CA0148
:101070001092CB011092CC010E9460036B017C01A5
:101080004B015C0128EB820E2BE0921EA11CB11CCF
:101090000E9460036C157D058E059F0528F086165D
:1010A0009706A806B906A0F768EE73E080E090E026
:1010B0000E94A9028FEF9FEF909384018093830198
:1010C0000E9460036093C9017093CA018093CB01B1
:1010D0009093CC0185E291E00E946C030E94600332
:1010E0006B017C014B015C013AE0830E911CA11C59
:1010F000B11C0E9460036C157D058E059F0528F0CC
:1011000086169706A806B906A0F781E08093DD0150
:101110000E9460036093C9017093CA018093CB0160
:101120009093CC0186E391E00E946C03C0E0D0E094
:1011300084EF882E99249394A12CB12C0E946003F3
:10114000672B682B692B09F4F1C00E946003C090E3
:101150005D01D0905E01E0905F01F09060016C1540
:101160007D058E059F0508F4EFC0C0905D01D0900D
:101170005E01E0905F01F09060019B01AC012C19D1
:101180003D094E095F0969017A0138EEC31633E063
:10119000D306E104F10408F4D1C060935D017093BB
:1011A0005E0180935F01909360018092D5019092DF
:1011B000D601A092D701B092D8011092D901109215
:1011C000DA011092DB011092DC018091CD01909147
:1011D000CE01A091CF01B091D0018093D101909325
:1011E000D201A093D301B093D4010E946003609315
:1011F000CD017093CE018093CF019093D00187E70A
:1012000091E00E944602843611F40E94BD030E94C0
:1012100060036093C9017093CA018093CB019093DE
:10122000CC010E9460036B017C018DE391E00E9480
:101230006C034AE061E070E080E090E00E94790396
:1012400084E491E00E946C034AE0C701B6010E9469
:10125000790386E491E00E946C038091CD01909126
:10126000CE01A091CF01B091D001A7019601281B1A
:10127000390B4A0B5B0BCA01B9014AE00E947903A2
:1012800086E491E00E946C036091CD017091CE01E3
:101290008091CF019091D001C090D101D090D20126
:1012A000E090D301F090D4016C197D098E099F095B
:1012B0004AE00E94790388E491E00E946C030E9456
:1012C00060034AE00E9479038AE491E00E946C0383
:1012D00081E591E00E946C030E9460032B013C01B8
:1012E0007C016B0135E0C30ED11CE11CF11C0E9496
:1012F0006003641575058605970528F0C616D706A0
:10130000E806F906A0F787E791E00E9446028436D6
:1013100011F40E94BD030E9460036093CD0170939D
:10132000CE018093CF019093D00108C00E9460034A
:10133000623071058105910508F007CF209709F407
:10134000FDCE0E940000FACE60935D0170935E01B5
:1013500080935F019093600108CFFC018827992753
:10136000E89421912032E9F3293010F02E30C8F3AF
:101370002B3241F02D3239F4689404C00E94CB091D
:10138000820F911D219120532A30C0F31EF49095B5
:1013900081959F4F08957AE0979F902D879F802D8C
:1013A000910D11240895A1E21A2EAA1BBB1BFD0169
:1013B0000DC0AA1FBB1FEE1FFF1FA217B307E40734
:1013C000F50720F0A21BB30BE40BF50B661F771F8C
:1013D000881F991F1A9469F760957095809590956C
:1013E0009B01AC01BD01CF010895EE0FFF1F0590D9
:0A13F000F491E02D0994F894FFCF6A
:1013FA00FFFFFFFF00E100000000000000C1808144
:10140A00000000000000000302DB02240219026A45
:10141A000228024602564D4450565F317C315F56CF
:10142A004D4450560A00564D4450525F00564D44A2
:10143A0050455F003A323A007C005F564D445045B1
:04144A00000D0A0087
:00000001FF
